{
  "_format": "hh-sol-artifact-1",
  "contractName": "EthereumFaucet",
  "sourceName": "contracts/EthereumFaucet.sol",
  "abi": [
    {
      "inputs": [],
      "stateMutability": "nonpayable",
      "type": "constructor"
    },
    {
      "anonymous": false,
      "inputs": [
        {
          "indexed": false,
          "internalType": "address",
          "name": "donater",
          "type": "address"
        },
        {
          "indexed": false,
          "internalType": "uint256",
          "name": "amount",
          "type": "uint256"
        }
      ],
      "name": "EtherReceived",
      "type": "event"
    },
    {
      "anonymous": false,
      "inputs": [
        {
          "indexed": false,
          "internalType": "address",
          "name": "receiver",
          "type": "address"
        },
        {
          "indexed": false,
          "internalType": "uint256",
          "name": "amount",
          "type": "uint256"
        }
      ],
      "name": "EtherWithdrawn",
      "type": "event"
    },
    {
      "inputs": [],
      "name": "donate",
      "outputs": [],
      "stateMutability": "payable",
      "type": "function"
    },
    {
      "inputs": [
        {
          "internalType": "address payable",
          "name": "_receiver",
          "type": "address"
        },
        {
          "internalType": "uint256",
          "name": "amount",
          "type": "uint256"
        }
      ],
      "name": "getEther",
      "outputs": [],
      "stateMutability": "nonpayable",
      "type": "function"
    },
    {
      "inputs": [],
      "name": "owner",
      "outputs": [
        {
          "internalType": "address",
          "name": "",
          "type": "address"
        }
      ],
      "stateMutability": "view",
      "type": "function"
    }
  ],
  "bytecode": "0x608060405234801561001057600080fd5b50336000806101000a81548173ffffffffffffffffffffffffffffffffffffffff021916908373ffffffffffffffffffffffffffffffffffffffff16021790555061036c806100606000396000f3fe6080604052600436106100345760003560e01c80638da5cb5b14610039578063a079c56a14610064578063ed88c68e1461008d575b600080fd5b34801561004557600080fd5b5061004e610097565b60405161005b9190610217565b60405180910390f35b34801561007057600080fd5b5061008b600480360381019061008691906101ae565b6100bb565b005b610095610149565b005b60008054906101000a900473ffffffffffffffffffffffffffffffffffffffff1681565b804710156100c857600080fd5b60008273ffffffffffffffffffffffffffffffffffffffff166108fc839081150290604051600060405180830381858888f1935050505090508061010b57600080fd5b7f06097061aeda806b5e9cb4133d9899f332ff0913956567fc0f7ea15e3d19947c838360405161013c929190610232565b60405180910390a1505050565b7f1e57e3bb474320be3d2c77138f75b7c3941292d647f5f9634e33a8e94e0e069b333460405161017a92919061025b565b60405180910390a1565b60008135905061019381610308565b92915050565b6000813590506101a88161031f565b92915050565b600080604083850312156101c157600080fd5b60006101cf85828601610184565b92505060206101e085828601610199565b9150509250929050565b6101f3816102d2565b82525050565b61020281610284565b82525050565b610211816102c8565b82525050565b600060208201905061022c60008301846101f9565b92915050565b600060408201905061024760008301856101ea565b6102546020830184610208565b9392505050565b600060408201905061027060008301856101f9565b61027d6020830184610208565b9392505050565b600061028f826102a8565b9050919050565b60006102a1826102a8565b9050919050565b600073ffffffffffffffffffffffffffffffffffffffff82169050919050565b6000819050919050565b60006102dd826102e4565b9050919050565b60006102ef826102f6565b9050919050565b6000610301826102a8565b9050919050565b61031181610296565b811461031c57600080fd5b50565b610328816102c8565b811461033357600080fd5b5056fea26469706673582212206a23e25f5eb58eecfbe807cf92cbb47fb1eddcf830e2939f30203be9f5800a3364736f6c63430008000033",
  "linkReferences": {},
  "deployedLinkReferences": {}
}